:100000000C945D000C9485000C9485000C94850084
:100010000C9485000C9485000C9485000C9485004C
:100020000C9485000C9485000C9485000C9485003C
:100030000C9485000C9485000C9485000C9485002C
:100040000C944D040C9485000C941B040C94F50343
:100050000C9485000C9485000C9485000C9485000C
:100060000C9485000C94850000000008000201003B
:100070000003040700000000000000000000000072
:10008000250028002B0000000000240027002A0083
:10009000040404040404040402020202020203032E
:1000A0000303030301020408102040800102040836
:1000B0001020010204081020970411241FBECFEF66
:1000C000D8E0DEBFCDBF12E0A0E0B1E0E6E1FDE0A8
:1000D00002C005900D92A032B107D9F722E0A0E24C
:1000E000B2E001C01D92AA3EB207E1F710E0CDE5F3
:1000F000D0E004C02197FE010E947006CC35D107E4
:10010000C9F70E94E2040C9489060C94000090E068
:10011000FC01EC55FF4F2491FC01E057FF4F849107
:10012000882399F090E0880F991FFC01EA57FF4F50
:10013000A591B491FC01E458FF4F859194918FB73C
:10014000F894EC91E22BEC938FBF0895CF92DF925D
:10015000EF92FF920F931F93CF93DF936C017A017D
:100160008B01C0E0D0E0CE15DF0589F0D8016D919C
:100170008D01D601ED91FC910190F081E02DC60139
:100180000995892B11F47E0102C02196ECCFC7019D
:10019000DF91CF911F910F91FF90EF90DF90CF9063
:1001A0000895FC01918D828D981761F0828DDF0199
:1001B000A80FB11D5D968C91928D9F5F9F73928F5A
:1001C00090E008958FEF9FEF0895FC01918D828D4F
:1001D000981731F0828DE80FF11D858D90E008951C
:1001E0008FEF9FEF0895FC01918D228D892F90E074
:1001F000805C9F4F821B91098F739927089585E337
:1002000092E00E94F30021E0892B09F420E0822F84
:100210000895FC01848DDF01A80FB11DA35ABF4FC3
:100220002C91848D90E001968F739927848FA689F5
:10023000B7892C93A089B1898C9180648C93938D1C
:10024000848D981306C00288F389E02D80818F7D0C
:1002500080830895EF92FF920F931F93CF93DF93C4
:10026000EC0181E0888F9B8D8C8D981305C0E88907
:10027000F989808185FD24C0F62E0B8D10E00F5F7B
:100280001F4F0F731127E02E8C8DE8120CC00FB694
:1002900007FCFACFE889F989808185FFF5CFCE0187
:1002A0000E940901F1CF8B8DFE01E80FF11DE35A89
:1002B000FF4FF0820B8FEA89FB898081806207C043
:1002C000EE89FF896083E889F98980818064808371
:1002D00081E090E0DF91CF911F910F91FF90EF901F
:1002E0000895CF93DF93EC01888D8823C9F0EA89C4
:1002F000FB89808185FD05C0A889B9898C9186FD1F
:100300000FC00FB607FCF5CF808185FFF2CFA8891B
:10031000B9898C9185FFEDCFCE010E940901E7CF0D
:10032000DF91CF91089590E0FC01E859FF4F34919F
:10033000FC01EC55FF4F2491FC01E057FF4FE49185
:10034000EE2309F43BC0332339F1333091F038F414
:100350003130A9F0323001F584B58F7D12C03730CD
:1003600091F03830A1F03430B9F4809180008F7D65
:1003700003C0809180008F77809380000DC084B58A
:100380008F7784BD09C08091B0008F7703C08091C2
:10039000B0008F7D8093B000F0E0EE0FFF1FE458B7
:1003A000FF4FA591B4918FB7F894EC91611103C000
:1003B00020952E2301C02E2B2C938FBF08953FB77D
:1003C000F8948091260290912702A0912802B09182
:1003D000290226B5A89B05C02F3F19F00196A11D43
:1003E000B11D3FBFBA2FA92F982F8827820F911DCB
:1003F000A11DB11DBC01CD0142E0660F771F881F12
:10040000991F4A95D1F708958F929F92AF92BF920C
:10041000CF92DF92EF92FF926B017C010E94DF018D
:100420004B015C01C114D104E104F104F1F00E941C
:10043000DF01DC01CB0188199909AA09BB09883EB3
:100440009340A105B10570F321E0C21AD108E1087B
:10045000F10888EE880E83E0981EA11CB11CC1141F
:10046000D104E104F10419F7DDCFFF90EF90DF90A4
:10047000CF90BF90AF909F908F900895CF93DF93D0
:10048000EC0160E08E810E94930161E08E810E9408
:10049000930160E08E810E9493018BE891E00197C7
:1004A000F1F7DF91CF910895CF92DF92EF92FF9213
:1004B0000F931F93CF93DF937C016C0187E0C80EED
:1004C000D11CC0E0D0E0062F10E0B8010C2E02C015
:1004D000759567950A94E2F76170F60181916F0155
:1004E0000E9493012196C430D10579F7C701DF91AD
:1004F000CF911F910F91FF90EF90DF90CF900C94D0
:100500003E02CF92DF92EF92FF920F931F93CF9311
:10051000DF93EC01F62E642F8C810E9493018D8174
:100520008F3F19F060E00E9493018F850F2D10E03E
:1005300084FF25C06E0187E0C80ED11CE12CF12C90
:10054000B8010E2C02C0759567950A94E2F76170A8
:10055000F60181916F010E949301FFEFEF1AFF0AEC
:1005600088E0E816F10461F7CE01DF91CF911F9189
:100570000F91FF90EF90DF90CF900C943E02B80166
:1005800084E0759567958A95E1F7CE010E94540243
:100590006F2DCE01DF91CF911F910F91FF90EF90C2
:1005A000DF90CF900C94540241E00E94810281E0E0
:1005B00090E0089540E00C948102E091E502E23081
:1005C00010F4E15001C0E1E0F0E0EE52FD4F64892B
:1005D000606882ED92E00C94DA0261E00E94DA0237
:1005E0008BE39FE10197F1F70895EF92FF920F934C
:1005F0001F93CF93DF93EC01623018F08F858860F2
:100600008F876B8B1C8A80E48D8B80E18E8B80E5DD
:100610008F8B8C810E9487008D818F3F11F00E940B
:1006200087008E810E9487007E0187E0E80EF11C22
:1006300000E010E08F8584FD03C084E090E002C0FC
:1006400088E090E00817190744F4F70181917F01D1
:100650000E9487000F5F1F4FEDCF8BE39DE0019756
:10066000F1F760E08C810E94930160E08E810E942E
:1006700093018D818F3F19F060E00E9493016F8597
:1006800064FD1DC063E0CE010E9454020BE416E439
:10069000C8010197F1F763E0CE010E945402C8013E
:1006A0000197F1F763E0CE010E94540283E592E0E6
:1006B0000197F1F762E0CE010E94540216C0606219
:1006C000CE010E94DA028BE496E40197F1F76F8580
:1006D0006062CE010E94DA0283E592E00197F1F7B1
:1006E0006F856062CE010E94DA026F856062CE0182
:1006F0000E94DA0284E0888B6CE0CE010E94DA026C
:10070000CE010E94ED0282E0898B66E0CE01DF918E
:10071000CF911F910F91FF90EF900C94DA02CF933D
:10072000DF93D1E085E392E00E94F300892B39F159
:1007300085E392E00E94D100C82F90912002E92F1A
:10074000092E000CFF0BE65DFD4FC0839F5F909369
:100750002002E091D202F091D3020190F081E02DCD
:100760006C2F82ED92E0099562E370E080E090E00A
:100770000E940402CD30B1F6D0933402D3CFDF9182
:10078000CF9108950E94FF0081110C948F0308956A
:10079000009769F0FC0101900020E9F73197AF0163
:1007A000481B590BBC0182ED92E00C94A60080E03E
:1007B00090E0089582ED92E00E94ED0288E191E0E0
:1007C0000E94C8030E94DD02E2EDF2E06089862FFC
:1007D0008260808B6A60CF010E94DA021092200250
:1007E0001092340208950E9476061F920F920FB65F
:1007F0000F9211242F933F934F935F936F937F93A7
:100800008F939F93AF93BF93EF93FF9385E392E012
:100810000E940901FF91EF91BF91AF919F918F913C
:100820007F916F915F914F913F912F910F900FBEEC
:100830000F901F9018951F920F920FB60F921124D0
:100840002F938F939F93EF93FF93E0914502F09145
:1008500046028081E0914B02F0914C0282FD12C071
:10086000908180914E028F5F8F7320914F0282178B
:1008700051F0E0914E02F0E0EB5CFD4F958F8093DC
:100880004E0201C08081FF91EF919F918F912F9136
:100890000F900FBE0F901F9018951F920F920FB6DA
:1008A0000F9211242F933F938F939F93AF93BF93F6
:1008B0008091220290912302A0912402B0912502FE
:1008C0003091210223E0230F2D3720F40196A11D42
:1008D000B11D05C026E8230F0296A11DB11D20936E
:1008E00021028093220290932302A0932402B093CA
:1008F00025028091260290912702A0912802B091B2
:1009000029020196A11DB11D809326029093270212
:10091000A0932802B0932902BF91AF919F918F912C
:100920003F912F910F900FBE0F901F901895E5E308
:10093000F2E01382128288EE93E0A0E0B0E08483BC
:100940009583A683B78384E091E09183808385ECCF
:1009500090E09587848784EC90E09787868780EC89
:1009600090E0918B808B81EC90E0938B828B82EC7A
:1009700090E0958B848B86EC90E0978B868B118E24
:10098000128E138E148EE2EDF2E01382128284E155
:1009900091E0918380838DE084838FEF85838CE069
:1009A00086838BE087838AE0808789E0818788E07F
:1009B00082871386148615861686178661E0CF0116
:1009C0000C94F502789484B5826084BD84B581600E
:1009D00084BD85B5826085BD85B5816085BD80910A
:1009E0006E00816080936E00109281008091810082
:1009F000826080938100809181008160809381007A
:100A0000809180008160809380008091B10084603B
:100A10008093B1008091B00081608093B00080919C
:100A20007A00846080937A0080917A00826080935B
:100A30007A0080917A00816080937A0080917A00B8
:100A4000806880937A001092C10062E082ED92E0AB
:100A50000E94F502E0914502F091460282E0808317
:100A6000E0914102F09142021082E0914302F09144
:100A700044028FEC808310924D02E0914902F09184
:100A80004A0286E08083E0914702F091480280812B
:100A900080618083E0914702F09148028081886004
:100AA0008083E0914702F0914802808180688083D2
:100AB000E0914702F091480280818F7D808383E03E
:100AC0000E94870084E00E94870085E00E948700E2
:100AD00089E291E00E94C8030E94DD028BE391E06D
:100AE0000E94C80360ED77E080E090E00E9404027D
:100AF00082ED92E00E94ED028DE491E00E94C80335
:100B00000E94DD028BE591E00E94C80360ED77E072
:100B100080E090E00E94040282ED92E00E94ED02EB
:100B200087E691E00E94C8030E94DD0283E791E01E
:100B30000E94C80360ED77E080E090E00E9404022C
:100B400082ED92E00E94ED0280E891E00E94C803ED
:100B50000E94DD028AE891E00E94C80360ED77E020
:100B600080E090E00E94040282ED92E00E94ED029B
:100B700085E991E00E94C8030E94DD028EE991E0C0
:100B80000E94C80360ED77E080E090E00E940402DC
:100B90000E94DA0368EE73E080E090E00E940402B5
:100BA00080913402813009F098C046E050E063E85B
:100BB00071E08AE292E00E947B06892B79F482ED53
:100BC00092E00E94ED0261E084E00E94930182EDD8
:100BD00092E00E94ED0288EA91E075C047E050E0A3
:100BE0006DE871E08AE292E00E947B06892B59F45D
:100BF00060E084E00E94930182ED92E00E94ED02A9
:100C000086EB91E060C048E050E06AE671E08AE27D
:100C100092E00E947B06892B59F461E083E00E94F8
:100C2000930182ED92E00E94ED0285EC91E04BC0D1
:100C300049E050E066E771E08AE292E00E947B06BC
:100C4000892B59F460E083E00E94930182ED92E0E9
:100C50000E94ED0285ED91E036C045E050E068E984
:100C600071E08AE292E00E947B06892B59F461E0F0
:100C700085E00E94930182ED92E00E94ED0286EEF3
:100C800091E021C046E050E061EA71E08AE292E042
:100C90000E947B06892B59F460E085E00E94930155
:100CA00082ED92E00E94ED0283EF91E00CC082EDB4
:100CB00092E00E94ED0281E092E00E94C8030E944F
:100CC000DD0280E192E00E94C80368EB7BE080E0F7
:100CD00090E00E9404020E94DA030E94C20360CFE7
:100CE000EE0FFF1F0590F491E02D099481E090E054
:100CF000F8940C948906FB01DC014150504030F01F
:100D00008D910190801919F40020B9F7881B990B77
:060D10000895F894FFCFE6
:100D1600000000002A01A600F300D100E5007101E1
:100D260000000000D402A600456E7465722055527C
:100D36002043686F6973653A0020486F6D652041EE
:100D460075746F6D6174696F6E20002020202055C8
:100D560073696E672050432020202020004B657960
:100D6600776F72647320466F722000436F6E7472E1
:100D76006F6C6C696E6700312E204C4947485420D1
:100D86004F4E00322E204C49474854204F464600CD
:100D9600332E2046414E204F4E00342E2046414EE3
:100DA600204F464600352E205456204F4E00362EF4
:100DB600205456204F46460046616E205475726E8A
:100DC6006564204F6E0046616E205475726E6564D0
:100DD600204F4646004C69676874205475726E65EC
:100DE60064204F4E004C69676874205475726E65B6
:100DF60064204F4646005456205475726E65642032
:100E06004F4E005456205475726E6564204F464608
:100E16000020496E76616C696420496E70757400B5
:100E260020202054727920416761696E20200000DD
:107E0000112484B714BE81FFF0D085E080938100F7
:107E100082E08093C00088E18093C10086E0809377
:107E2000C20080E18093C4008EE0C9D0259A86E02C
:107E300020E33CEF91E0309385002093840096BBD3
:107E4000B09BFECF1D9AA8958150A9F7CC24DD24C4
:107E500088248394B5E0AB2EA1E19A2EF3E0BF2EE7
:107E6000A2D0813461F49FD0082FAFD0023811F036
:107E7000013811F484E001C083E08DD089C08234E0
:107E800011F484E103C0853419F485E0A6D080C0E4
:107E9000853579F488D0E82EFF2485D0082F10E0AE
:107EA000102F00270E291F29000F111F8ED06801E7
:107EB0006FC0863521F484E090D080E0DECF843638
:107EC00009F040C070D06FD0082F6DD080E0C81688
:107ED00080E7D80618F4F601B7BEE895C0E0D1E017
:107EE00062D089930C17E1F7F0E0CF16F0E7DF06D8
:107EF00018F0F601B7BEE89568D007B600FCFDCFD4
:107F0000A601A0E0B1E02C9130E011968C91119780
:107F100090E0982F8827822B932B1296FA010C0160
:107F200087BEE89511244E5F5F4FF1E0A038BF0790
:107F300051F7F601A7BEE89507B600FCFDCF97BE46
:107F4000E89526C08437B1F42ED02DD0F82E2BD052
:107F50003CD0F601EF2C8F010F5F1F4F84911BD097
:107F6000EA94F801C1F70894C11CD11CFA94CF0C13
:107F7000D11C0EC0853739F428D08EE10CD085E9AC
:107F80000AD08FE07ACF813511F488E018D01DD067
:107F900080E101D065CF982F8091C00085FFFCCF94
:107FA0009093C60008958091C00087FFFCCF809118
:107FB000C00084FD01C0A8958091C6000895E0E648
:107FC000F0E098E1908380830895EDDF803219F02E
:107FD00088E0F5DFFFCF84E1DECF1F93182FE3DFCA
:107FE0001150E9F7F2DF1F91089580E0E8DFEE27F6
:047FF000FF270994CA
:027FFE00040479
:0400000300007E007B
:00000001FF
